{
  "contractName": "SimpleStorage",
  "abi": [
    {
      "constant": false,
      "inputs": [
        {
          "name": "_data",
          "type": "uint256"
        }
      ],
      "name": "set",
      "outputs": [],
      "payable": false,
      "stateMutability": "nonpayable",
      "type": "function"
    },
    {
      "constant": true,
      "inputs": [],
      "name": "get",
      "outputs": [
        {
          "name": "",
          "type": "uint256"
        }
      ],
      "payable": false,
      "stateMutability": "view",
      "type": "function"
    }
  ],
  "bytecode": "0x608060405234801561001057600080fd5b5060e68061001f6000396000f3fe6080604052600436106043576000357c01000000000000000000000000000000000000000000000000000000009004806360fe47b11460485780636d4ce63c14607f575b600080fd5b348015605357600080fd5b50607d60048036036020811015606857600080fd5b810190808035906020019092919050505060a7565b005b348015608a57600080fd5b50609160b1565b6040518082815260200191505060405180910390f35b8060008190555050565b6000805490509056fea165627a7a7230582082455bbac3f0367ab78d021b989349c408b8e59f42780a59d51a56a3e7ed89800029",
  "source": "// SPDX-License-Identifier: MIT\npragma solidity >=0.4.22 <0.9.0;\n\ncontract SimpleStorage {\n    uint256 private data;\n\n    function set(uint256 _data) public {\n        data = _data;\n    }\n\n    function get() public view returns (uint256) {\n        return data;\n    }\n}\n",
  "sourcePath": "/Users/kacperhernacki/WebstormProjects/web3-youtube/contracts/SimpleStorage.sol",
  "compiler": {
    "name": "solc",
    "version": "0.5.1+commit.c8a2cb62.Emscripten.clang"
  },
  "schemaVersion": "3.4.16",
  "updatedAt": "2023-09-27T16:59:41.740Z",
  "networkType": "ethereum",
  "devdoc": {
    "methods": {}
  },
  "userdoc": {
    "methods": {}
  }
}